:4000000000100020110000008D0300008D03000010B500F0C3F9C04670B5104C23688022D20213432360182000F03CFB22680C4B134023600B4A0C4B1A60822212060B4B3F
:400040001A60002525600A49092000F0F7FA092000F0E8FA074B1D6070BDC04600010B40FFFFFBFF0600008004010B4008010B40B50800000C020B4010B572B601222A4BF9
:400080001A7000240FE029486200131959000B00411889881A5AC31858880004104300F053F90134E4B2012CEDD920490C3120481C3000F02FF9EE2212021E4B1A60992321
:4000C0001B041D4A13601D4A13601D4A13601D4A13601D4A1D4B1A6001211D4B196002221C4B1A601C4803783A32934314221343DBB20370194A107816230343DBB2137001
:40010000174B19600622174B1A60033A164B1A60164A174B1A60D8221201164B1A60FFF77BFF00F027F910BD1C700F40DC2300005C2600000C00014000500F4010500F4060
:4001400020500F4030500F40040404C458300F402000004000800F4001700F4000700F40000004400800044018010440B06DDB00080204400803044010B5064C2378002B3D
:4001800007D1054B002B02D0044800E000BF0123237010BD4801002000000000C8230000084B10B5002B03D00749084800E000BF07480368002B00D110BD064B002BFBD038
:4001C0009847F9E7000000004C010020C8230000C00000200000000010B500F075F9830708D500F077F9040000F080F9241A084B1C6002E00022064B1A60054A137959425F
:400200004B41537100F096F900F050F910BDC04664010020F8B562B600F0B8F900F09EFC334800F0E5F900F027F9012000F0EEF9322000F015FA00F0A9F9002000F0E6F94B
:400240009620400000F00CFA2A4B5A791B799A4202D10022274B1A60264B1C68002C27D0254B186802F00AF8244A254B01F0CAF906000F002100234800F0B8FC01F0C6FF70
:4002800004000D0002000B003000390001F0BAF902000B002000290001F0B4F902000B000020194900F08AFD00F06AFD040000E00024200001F0AAFF0022134B00F038FD5B
:4002C00000280BD0012C09D9012000F0FBFB200000F054FC0D4800F0E7FB05E0012000F0F1FB0B4800F0E0FB024B5A791A719CE7D901000064010020C4000020DE45BEC943
:400300003CBD434000366E0180842E41CC230000D0230000F0B50025002711E0BB00C658F3B2FF22964308E06A008A181478A419527822700135013BDBB2002BF4D101372D
:40034000082FEBD9F0BDC04610B50A00002102F033F810BD064B1B68002803D080221206134301E05B005B08014A13607047C04680031A4010B582225200034B1A6001207B
:40038000FFF7E8FF10BDC0468000104010B501F0E7FF03680C2B00D1FEE7FEE770B50F4E0F4D13E029686B68AC68002202E001C901C30432A242FAD1E868002202E00021AF
:4003C00002C304328242FAD11035013E002EE9D101F0CCFFFFF71EFFFEE7C046010000007427000010B500230AE0032B03D89A000949505800E009489900094A8850013319
:400400002F2BF2D9FFF738FE8022D205116801230B43136010BDC046000000008D0300000000002010B50322084B1A6080221206074B1A607022074B1A6000F0CFFB064B6B
:400440001A681A6000F0CEFB10BDC0466C010020000010400400104028001040044A1168044B1B680B43802109010B4313607047040010406C01002010B5064B1B79002B8B
:4004800004D1FFF7CFFF0122024B1A71FFF7E6FF10BDC0466C010020034A117880235B420B43DBB21370704770000F40024A11787F230B401370704770000F40014B1870F4
:4004C0007047C04680000F40014B1878C0B2704760000F40014B18687047C04680200F40014B18607047C04680200F40014B18687047C04600210F40014B18607047C0465A
:4005000000200F40034A117810230B43DBB213707047C04670000F4003231840044B1A7803218A431A701A78104318707047C04670000F4010B501E0FFF7D8FFFFF7C4FF7A
:400540000307F9D410BDC04610B50E4C2000FFF7C7FF2000FFF7D0FF00F040FB0A4A117810230B43DBB2137000F03CFBFFF7CAFF0020FFF7D1FFFFF7DDFF0320FFF79EFF04
:4005800010BDC046FF9E240090000F4010B5064B1B78002B04D1FFF7D7FF0122024B1A70FFF77AFF10BDC04671010020014B18647047C0460000002010B5040000F00EFB1E
:4005C000044A1368C0218B43A4011C43146000F009FB10BD00E400E00122014B1A60704700E100E00122014B1A60704780E100E010B50400FFF7F6FF2000FFF7D7FF032081
:40060000FFF7DAFFFFF7E8FF10BDC046044A1368DBB201218B430840184310607047C046000004401F2318401E3B8340014A13607047C04600E100E001BE704770B5040050
:400640000D001F2802D90020FFF7F6FF1034A40080239B059C4664442068256070BDC04610B5040006E0084B586800F0ADFA074B9C46644480231B029C42F4D8024B98685F
:40068000604300F0A1FA10BDC80000200080FFFF10B5034B1B7B584300F096FA10BDC046C8000020F0B557464E46C0B483B0040000F094FA0190E71E2D2F74D83F4B1B7800
:4006C000DBB29C4208D83E4B1B78DBB29A463D4B1B78DBB2994631E03B4B1B78DBB29C4208D83A4B1B78DBB29A46394B1B78DBB2994623E0374B1B78DBB29C4208D8364B3E
:400700001B78DBB29A46354B1B78DBB2994615E0334B1B78DBB29C4208D8324B1B78DBB29A46314B1B78DBB2994607E02F4B1B78DBB29A462E4B1B78DBB299462D4BDE5D65
:400740002F2E09D92A2C07D919222B4B1A60052000F03AFA192503E0274B1D683F231D40B54206D9234BDA5D234B1A60052000F02BFA1F4B9C4664442378DBB21F4A136024
:400780001F4B52461A601F4B4A461A600520FFF77FFFB5420AD2174BDA5D174B1A60052000F012FA02E00020FFF746FF019800F019FA03B00CBC91469A46F0BDC0F1FF0FD0
:4007C000C1F1FF0FC2F1FF0FC3F1FF0FC4F1FF0FC5F1FF0FC6F1FF0FC7F1FF0FC8F1FF0FC9F1FF0FCAF1FF0FCBF1FF0FCCF1FF0FCDF1FF0F9C2600002CFF0B4028FF0B4041
:400800001CFF0B4020FF0B40034B1868C0231B02184000D00120704700010B4010B500F0DDF9044A1368C02109020B43136000F0D9F910BD00010B4010B500F0CFF9084924
:400840000A68084B1A408024E40122430A600A6813408022120213430B6000F0C3F910BD00010B40FF3FFFFF70B5050000F0B6F90400FFF7C9FF002803D0FFF7DDFF01214A
:4008800000E0002108482840084A1568084B2B40184310601368012901D1FFF7BFFF200000F0A0F970BDC0460404040010020B40FBFBFBFF10B5244B1B685B0715D5234B56
:4008C0001B685B070ED5224BD969042001401F4C22688A432260DA698243DA611B69002B00D098470420FFF7BFFF174B1B685B0518D5164B1B685B0510D5154BD9698022C0
:40090000D2001140114802688A430260D969114A0A40DA615B69002B00D098478020C000FFF7A2FF084B1B685B030CD5074B1B685B0304D5064B9B69002B00D098478020FB
:40094000C002FFF791FF10BD10020B40DC00002074010020FFFBFFFF10B50C4C2268C0218A4322602268A2398A43226021684300DBB220221343D8B2084320600120FFF794
:4009800087FE236820229343236010BD0002044070B505000F4C226840231343236023688022934323600020FFF772FE23681E229343236021686D00EBB220221343D8B249
:4009C000084320600120FFF763FE236820229343236070BD00020440F8B5274B1A68FE218A431A6025490868254A0240254802430A601A6840218A431A60196880220A43CF
:400A00001A60CA277F000020FFF742FE1A4C23682026334323600120FFF73AFE1A4B1D682368B34323600020FFF732FE10231D402368334323600120FFF72AFE2368B343EF
:400A40002360002D02D10A20FFF722FE013F002D01D0002FD7D1084B1A6880218A431A601A687E318A431A60044A1168044B0B4006490B431360F8BD0002044008020440AF
:400A80000780FFFF4812000004020440B06D000010B50400FFF7A0FF2009FFF779FF0F202040FFF775FF10BD70B505000078012404E0FFF7EDFF285D0134E4B20028F8D167
:400AC00070BDC04610B50400FFF786FF2009FFF743FF0F202040FFF73FFF10BD10B52820FFF7BEFD0320FFF737FF0520FFF7B8FD0320FFF731FF0F20FFF7B2FD0320FFF77B
:400B00002BFF0120FFF7ACFD0220FFF725FF0520FFF7A6FD0620FFF7D5FF0E20FFF7D2FF2C20FFF7CFFF0820FFF7CCFF0120FFF7C9FF0C20FFF7C6FF0320FFF7C3FF05202D
:400B4000FFF78EFD10BDC04610B50C20FFF7BAFF0122014B1A7010BD9401002010B5064B5B78002B04D1FFF7B9FF0122024B5A70FFF7EAFF10BDC0469401002030B585B0B4
:400B80000400002201AB9A7209250EE00A21200000F0B2F8C9B2303101AB59550A21200000F024F80400013DEDB2092CEED80A21200000F0A1F8C9B2303101A841554019A5
:400BC000FFF772FF05B030BD0230800804D0C0460138FDD1C046C046C0467047EFF3108072B6704780F310887047C046002243088B4274D303098B425FD3030A8B4244D3F2
:400C0000030B8B4228D3030C8B420DD3FF22090212BA030C8B4202D31212090265D0030B8B4219D300E0090AC30B8B4201D3CB03C01A5241830B8B4201D38B03C01A524187
:400C4000430B8B4201D34B03C01A5241030B8B4201D30B03C01A5241C30A8B4201D3CB02C01A5241830A8B4201D38B02C01A5241430A8B4201D34B02C01A5241030A8B424E
:400C800001D30B02C01A5241CDD2C3098B4201D3CB01C01A524183098B4201D38B01C01A524143098B4201D34B01C01A524103098B4201D30B01C01A5241C3088B4201D343
:400CC000CB00C01A524183088B4201D38B00C01A524143088B4201D34B00C01A5241411A00D20146524110467047FFE701B5002000F006F802BDC0460029F7D076E770476D
:400D00007047C0468446101C62468C46191C634600E0C0461FB500F00BFC002801D40021C8421FBD10B500F05FFB4042013010BD10B500F0FDFB002801DB002010BD0120A5
:400D400010BDC04610B500F0F3FB002801DD002010BD012010BDC04610B500F085FB002801DC002010BD012010BDC04610B500F07BFB002801DA002010BD012010BDC046EC
:400D800070B500220C4B04000D00FFF7EFFF002804D12000290001F003FA70BD064B00222000290000F0A8FE01F0FAF980231B069C466044F1E7C0460000E041F0B556467F
:400DC0004D4644465F46F0B41D000E034C00CB0F87B0070092468146360B640D98466AD06D4B9C4235D08022430F12041343F6001E43C3009946694B00279C460023644416
:400E000002932B0368001B0BED0F51469B46400D009500D178E0604B98426CD05B46DA004B0F802109040B4313439B465346D9005A4B9C46002360444246201A6A40924615
:400E400001901F430F2F00D9B0E05548BF00C0598746374300D088E0002399460233082700260293CDE74346B34649460093029B009A9246022B00D0BFE1002153460122E2
:400E8000002689461A40444B002136030C0D2405360B2643434C1B0526401E437600D207760816434846310007B03CBC90469946A246AB46F0BD330003434FD0002E00D132
:400EC000BCE1300001F02EFA03000B3B1C2B00DDADE11D220100D31A08393A008F408E40DA40B9461643304B00279C46002360444442029385E753465A4613432CD10023D9
:400F000000219B46023397E70B4320D05B46002B00D19EE1584601F005FA03000B3B1C2B00DD8FE102005946083A91408B461D21CB1A5146D9400B0059460B4351469B466F
:400F40009140194B9C4660444042002374E7002300219B4601336FE703236DE70023994601330427002602934BE703230C27029347E70122D51A382D00DCB0E153461A404C
:400F800000210023002689467EE700238026994600223603004B77E7FF07000001FCFFFFCC260000FFFF0F80F30300005E4500D972E100D16DE1019B4D46013B0193002361
:400FC000340002935B461E020B0E1E430B020393330C994633041B0C494620000093FFF705FE009B370043430600494620009846FFF782FE2C0C09040C43A04509D9E419DA
:40100000731EA74200D95CE1A04500D859E1023EE4194346E41A49462000FFF7E7FD0300009A80465343494620009B46FFF764FE2A040904120C0A4393450DD94346D21923
:40104000013B974200D93AE1934500D837E102235B429C46D219E0445B46D21A4346360433439B460399180C0B0C1D00059309045B46090C0C001B041B0C444304915943EC
:401080006B4368431B190D0CEB189C4203D980246402A44660441C0C09041B04090C20185D18824200D2DEE000D1D7E0161A029B9C465D1BAC459B415B42F61AB74200D1D8
:4010C00006E149463000FFF791FD009B04004343494630009846FFF70FFE2E0C09040E43B04509D9F619631EB74200D9F3E0B04500D8F0E0023CF6194346F31A4946180036
:401100000293FFF773FD009B06004343494602989846FFF7F1FD2D0409042D0C0D43A84509D9ED19731EAF4200D9D6E0A84500D8D3E0023EED192404210043463143049E4F
:40114000059A3000ED1A0B040C0C1B0C58436643534354439A19030C9B189E4203D980225202944664441A0C00041B04000C14191B18A54250D34DD001231943964A019B59
:4011800094466344002B00DCF3E64A0709D00F220A40042A05D00A1D8A42894149428B4411005A46D20108D55A468C4B1A4093468022D2009446019B6344894A934200DDEE
:4011C0005BE65A46C908500708435602514601225B058146360B5B0D0A4055E680231B031E4211D05A461A420ED15E461E433603360B2A0089467B4B46E6032B00D1E1E02D
:40120000012BBBD11A40BBE61E433603360B4246744B39E6002BB1D07D194A1EAF4252D91100A542A8D1039A9A42A5D1A6E703003E00283B9E400023994654E601F072F8EE
:40124000203041E603005246283B9A400021934677E6504601F066F820305EE6029B0026AB4200D323E7039E0299B44661448846B045B6415B467642F619B218013B02912C
:40128000974213D290424FD800D18EE0161A9B460DE7894500D28EE674084B46F60735005B081D434B46DB0702938BE69742EDD10399029CA142E5D93E1A9B46F7E698463E
:4012C000CAE61E00A5E6AC423ED874D0110053E70121494252E71C000EE71E002BE71F2D3CDC20230A0058465B1B9840EA4099400243481E81415E461143EE404B0709D07D
:401300000F230B40042B05D00B00191D99429B415B42F61833023CD55346012200211A40002601238946AFE502235B429C46039CE344A446029B63449846A045B641764255
:40134000F6190293B218B1E603988A1E41008142B6417642F619AD19039161E71F225242D31A5A46DA401300202D29D040225846551BA8400143481E814107200B4318405B
:401380000026002809D00F2200261A401900042ABBD10B0070077602360BDB0803439946012253461A4000236EE502998D42BBD89B4600267BE603989842C5D3110032E717
:4013C0000020D7E780265B4636031E433603360B009A8946034B57E5FF030000FFFFFFFEFE070000FF070000F0B55F4656464D464446F0B41F035C00DB0F9A46194B0E0355
:401400004D00C90F8046360B6D0D8B4691463F0B640D9D4219D0134B9C421BD00123A54206D018003CBC90469946A246AB46F0BDBE42F6D1C845F4D1D34510D0002DF0D109
:40144000304303005A1E9341EBE7310001230143E7D1E0E73A430123002AE2D1DEE70023DFE7C046FF070000F0B55F46444656464D46F0B41F033C0B2C4F0E034D00A346B6
:401480005C008446360B6D0DC90F9046640DDB0FBD422BD0254FBC422ED0002D0ED130430700814678427841002C17D15F463A4314D14B460020002B0AD006E0002C02D162
:4014C0005846024301D099421AD00123484218433CBC90469946A246AB46F0BD0028F2D058425841012240421043F1E737000743D0D002204042EBE75F461743CDD0F8E738
:40150000A542E2DC05DB5E45DFD808D000205E45DED248424841012340421843D8E7C445D3D80020C445F4D3D2E7C046FF070000F0B55F464D4644465646F0B41C03240B50
:40154000A4462F4C0F034D005E00C90F80463F0B6D0D8B469146760DDB0FA54220D0284CA64222D0002D12D1384344424441002E20D0002C0DD05C42634101245B421C438D
:4015800020003CBC90469946A246AB46F0BD002E17D05B4519D05B465C4201231C43EFE7390002240143EBD1D9E7614602241143E6D1D7E761460A43DBD100240028DFD052
:4015C000E9E761460A43E4D1E5E7B54203DD01225C421443D4E7B542CDDB6745DBD809D000246745CCD259464C426141012449420C43C5E7C845CED80024C845F3D3BFE7ED
:40160000FF070000F0B55F4656464D464446F0B40D0399464E002B0B87B00700924680469B46760DCC0F002E69D06D4B9E4235D05B468022DD001204430F13432B439B463E
:40164000C3009846674B00279C460023664401934A4615035000D20F53462D0B400D914600D176E05E4A90426CD080225B0F120413435C4AED0094461D4353460022DB0027
:40168000604449463618701C6140029017430F2F00D9AFE05448BF00C759BF465B461F4300D088E000239B469846023308270193CEE74946022A6AD0032A00D109E2012A97
:4016C00000D0BBE111400022002300259046CCB200212D030A0D12052D0B1543434A1B0515401D436D00E4076D0825434046290007B03CBC90469946A246AB46F0BD0343EA
:4017000052D05B46002B00D18AE1584600F00AFE03000B3B1C2B00DD7BE11D22D31A3A0001005D46DA4008398D4013008F402B439B46B8462E4B00279C46002360444642EE
:40174000019385E752462A432CD100250023022297E752462A4321D0002D00D154E1280000F0E0FD03000B3B1C2B00DD46E11D21CB1A51460200D9405346083A9540934073
:401780000D431B4A944660444042002279E7012400220C40124B0025904699E70025002301226EE703226CE700239B4698460133042701934CE703230C27019348E7002308
:4017C0008025984600242D03054B81E75D464346019A6FE75D4643462100019A6AE7C046FF07000001FCFFFF0C270000FFFF0F80F30300004246120C91461A0C9446424642
:4018000017044A461B041B0C5A43604690464A4642431000039262461C003F0C7A437C4342440192220C9246019A5244904506D98246802040028046C24450460390100C9A
:40184000049048462404240C1204121905922A0C2D042D0C68432C00824648467C4350438146200C8046574357444744BA4503D9802040028046C144380C3F04B8464844E5
:401880002404240C01900498A044404404905846000C814658460404200C8246070048465F434C464343604660436446834650464443380C8446E4186444A34203D980235E
:4018C0005B029C46E34448463F04230C3F0C2404E419574668436F4384464D46504655434243380C814662444A445B44944503D9802040028446654403983F0483460498DD
:401900003F0C8446E344C345804140428246100484460198674484466744A344BC46A345A4419946D44464428742BF41D4458041E144A04699459B417F424042C84407436D
:40194000120CBA18A045A4415F423B0064422343D71843467D19DB0D6D021D435B465A02059B1A43531E9A415B46DB0D1A4343465B021343EA0107D501225C081340234391
:40198000EA07029E13436D08574AB218002A4BDD580709D00F201840042805D0181D98429B415B42ED180300E80104D54F4A15408022D200B2184E48824200DDE7E60124A7
:4019C000DB08680718436D02530580462D0B5B0D0C407DE6802259461203114208D0154206D115432D0398462D0B4C46414B6FE65D4615432D032D0B3E4B69E603005546C5
:401A0000283B9D400023BCE6504600F08BFC2030A8E60300283B9F400023BB46984689E600F080FC203073E60124A61A382E07DD00220C4000230025904649E6029EA3E7D7
:401A40001F2E20DC20222C001800921BF040944093400443581E83411C43F540630709D00F232340042B05D023001C1D9C4292415242AD182B021FD5012400220C400123E4
:401A80000025904624E61F202C004042821AD440202E1CD04022961BB5402B43581E83410720234318400025002809D00F2200251A401C00042AD8D1230068076D022D0BB3
:401AC0000124DB08034398460C40002300E60025E3E780220124120315432D0398462D0B0C40044BF4E5C046FF030000FFFFFFFEFE070000FF070000F0B557464E46454619
:401B0000E0B40E001100F20F9246C500420F180337037400400A4E0F7F0A3043CF4E17435A00640D520DDB0FC900B24200D1E5E001267340A61AB446534500D1AFE0002EFF
:401B400000DC0DE1002A3AD103000B4300D0E4E06B0709D00F232B40042B05D02B1DAB42AD416D427F191D003B0200D488E0BB4B01349C4200D110E13A00B94B51461A408B
:401B800001235007ED08520264050543120B640D0B400021280012030D0D120B64052D0515436208AF4CDB072C401443640064081C4321001CBC90469946A246F0BDA74BE1
:401BC0009C42C5D080231B0418436346382B00DDFDE01F2B00DD30E1624620239B1A02009A40664690460A009940F24046464B1E99413243114363460200DA40691A8D4295
:401C00009B410D00BA1A5B42D71A3B0235D57A02530A98464346002B00D1C4E0404600F081FB0300083B1F2B00DDC5E020222900D21A4746D1409F400A009D403A439C4218
:401C400000DDC0E01C1B631C1F2B00DDE4E0202114002800C91AD8408C408D400443DA40681E854117002543002471E7424663461A4300D14CE2674645466B0700D069E736
:401C8000012351467807ED08FA080B40054373498C4238D012036405120B640D79E7002E00DC9AE0002A47D06C4A944200D14FE78022120410436246382A00DC08E10143EC
:401CC000481E81410022C9B24919D219A942BF410D007F42BF183A0200D442E15F4A0134944200D14EE101205D4A69083A4028400843D507054357089A4629E706000E432B
:401D000000D017E714E72900114300D1F9E1802109030A431203120B3BE701235B429846C4446346002B72D1691A8D429B413F1A5B42FF1A0D0068E702000A4300D107E7FF
:401D4000012252429046C4446246002A00D0E6E06918A942B6413F187642F7190D00BAE7002E00D080E0621C5205520D012A00DCF9E06A1A91464D45B6413A1A7642921B27
:401D80009046120200D499E04D1BA9428941C71B49427A1A90469A463CE752460123002513400022F5E6280000F0BCFA20300300083B1F2B00DC39E72A00283882400025A9
:401DC0009C4200DC3EE7264FE41A1740C0E60143481E81410022C9B210E7002E00D0F1E0621C94465205520D012A00DCA0E01B4A944500D1C5E06918A94292413F18524252
:401E0000D2194908D5070D4357086446A0E6134B9C4200D0D9E69BE611001F3CE1400C00202B00D180E04021CB1A9A4015436A1E95410027254300241FE763460200203BB5
:401E4000DA406346202B71D0402366469B1B98400143481E814111430022CFE6FF070000FFFF7FFFFFFF0F80002C48D0CA4CA24200D1A2E07442A1468024240427434C46DA
:401E8000382C00DDDBE01F2C00DD44E14E462024A41B3E00A640A246B0464C462E00E640B4464646644626435446A5406C1EA54134002C434D46EF400D1B28E04A46434624
:401EC0004D461A4300D0A5E6002300240025DEE61F2A5ADC66462022921B060096409146B04662460E00D640424616434A4691404A1E9141020060463143C240E4E63C0038
:401F00002C435AD0F443A146002C52D14D1BA9428941C71B49427F1A14009A4675E69E4A944200D0C7E613E600227FE700208FE7002C00D0C8E03B002B4300D10FE10300C6
:401F40000B4300D104E66918A9429B413F185B42DF193B0200D41AE1904B0D001F406446F6E59A4689E63A002A43002C5CD1002A75D102000A4300D1CAE007000D009A46CF
:401F8000E6E564460022002581E662460600203AD6406246B046202A00D1B7E040226646921B904001434246481E8141114300228AE6794CA24200D061E707000D00140042
:401FC0009A46C5E5002C41D13C002C4378D0F443A146002C20D0704CA24271D04C46382C00DDB2E01F2C00DDBCE02026341BA2463C005646B4404E46A0462C00F440A446D5
:40200000444666463443A4465446A54064466E1EB54125434C46E7406D188D4289413F184942CF19140056E6002A2FD102000A4300D184E007000D009A46574C88E53D43D3
:402040006F1EBD41ECB200270D1B60E7524CA24236D0744280263604A1463743BEE702000A4300D174E56A1A90464545B6413A1A7642921B9446120200D4F7E54D1BA9427F
:402080008941C71B49427F1A9A4661E502000A433AD0ED087C072C438025FA082D032A4208D0C7082F4205D145072C003A009A46C9080C43670FD200E5001743364C47E5D2
:4020C00007000D00140043E53A002A4343D002000A4319D0ED087C072C438025FA082D032A4207D0C6082E4204D147073C003200C9080C43D700620FE50017439A46264CD5
:4021000026E50022002544E5234C21E5002049E700230025BBE54C463E00203CE6404C46B446202C31D040244E46A61BB7403D436C1EA54164462C4300270D1BE7E68022D5
:4021400000231203144C0025A1E53D436F1EBD410027EDB260E707000D000F4CF8E407000D00F5E44E463C00203EF440A0464C46202C0ED040244E46A41BA7403D436F1E1D
:40218000BD4144460027254346E70027CFE70D0073E50027F2E7C046FF070000FFFF7FFF0B0330B5134D1A0B4B005B0DC90F0024AB4211DD104CA34210DC80246403224372
:4021C0000E4CE41A1F2C0CDD0D48C31ADA4013005C42002900D11C00200030BD094BCC18FAE7E040084CA44663449A4013000343EEE7C046FE0300001D04000033040000AE
:4022000013040000FFFFFF7FEDFBFFFF70B5051E28D000F087F8154B154A1B1AD21A1F2A16DD2C00134A0025D21A94405A052403240B520D002124030B0D240B1B052343C3
:402240000D4C1205234013435B002800590870BD0B212C00081AC440954024035A05240B520DE7E700220024E4E7C0461E0400003304000013040000FFFF0F804200120E79
:40228000511C4302C9B270B55D0AC40F012915DDE02189008C466D071B0B6244002128000D0D2D052B431C4D52052B40520813435B00E4075B082343190070BD002A15D197
:4022C000002D1FD0280000F02DF80A281DDC0B232A001B1ADA4013000200153295400F4A1B03121A52051B0B520DD7E7002D06D080221B0B120313436D07094ACEE7084A41
:402300000023CBE700220023C8E703000B3B9D402B000025E3E7C046FFFF0F8089030000FF0700001C2101231B04984201D3000C10391B0A984201D3000A08391B099842D0
:4023400001D30009043902A2105C40187047C04604030202010101010000000000000000014B18687047C046400100200E4B70B500251E000D4CE41AA410A54204D0AB00F3
:40238000F35898470135F8E700F0E2F9084B00251E00084CE41AA410A54204D0AB00F35898470135F8E770BD5C2700005C2700005C2700006427000003008218934202D04D
:4023C00019700133FAE7704700000000207568002D2D2D2D2D2D2D207548000000300F40000400400F400004800F0001040F050407010E040F1F11081301150216011710E7
:402400001A061B1F1D0E1E082207230E250E26042A042E033101330E34033510360C3F1140244101420549FF4AFF4BFF4F015018529354035604580459045A045B045C99D9
:402440005D995F056040624064406540668068806A806C806E8087019701A101AA01B101B601BF01C035C104C201C9FFCAFFCBFFCD83CE03CF01D018D804D904DA04DC0922
:40248000DD09DF01E040E240E440E540E680E880EA80EC80EE800101020203200A050B20108211041208160819501A051F40200421282208238826012740282029012B2003
:4024C0002D012F403158320236083880390C3C08400441014380450147484A014E0259065A205B80634069206B0170C271017B807D027F80874088208B80C00DC207C44FBE
:40250000CA83CC4FCE4AD0DDD218D60FD801DE01E08000020106020103100618070F0A0F0D050E04160F170F18011A021F19200F210F2407261027032B0E311F321F3A0839
:402540003B0240254104420149FF4AFF4BFF4D834E034F015018580459045A045C995D095F016040624064406540668068806A806C806E8082018401870F89038A028B0C41
:402580008D0F9105930A970F98039D039E039F0CA203A310A50FA905AB0AB203B310B50FC024C103C201C5ECC720C823C9FFCAFFCBFFCD83CE03CF01D018D804D904DA04BB
:4025C000DC99DD09DF01E040E240E440E540E680E880EA80EC80EE800018010104400628078108A00D1810801420150118101F0821042210278028A029012A202B082D015E
:402600002F1830403108330134403608378039203A083BA03C403D023E084020412143404521474049064E025101520291219380950A9620982099019A089B419D06A0846E
:40264000A129A208A602AC04AE08AF10C0FEC263C438CAE7CC5BCEDED0BFD210EE0203206E8086408B20C010DA80E6402B08CA08AF0802011101000001000F4056300F408D
:402680003E310F4063320F4043330F4007400F4002420F4001430F4002600F40030405060708090A0B0C0E0F101112131415161718191B1C1D1E1F20212223252627282937
:4026C0002A2B2E2F3031323334350000AC0F00007A0E0000800F0000700E0000800F00008A0F0000800F0000700E00007A0E00007A0E00008A0F0000700E0000660E0000D9
:40270000660E0000660E0000DC110000F4170000B4160000B4160000B2160000CC170000CC170000BE170000B2160000CC170000BE170000CC170000B2160000D4170000AC
:40274000D4170000D4170000D419000043000000F8B5C046F8BC08BC9E467047A1010000E5030000F8B5C046F8BC08BC9E4670477901000088270000C000002088000000AC
:402780005000000000000000000000001DA5F934010000000000E02EC05D00001800000000366E0104040400000000000000000000000000000000000000000000000000E5
:4027C00000000000000000004C2700000000000000000000000000000000000000000000000000000000000000000000000000000000000000000000000000000000000066
:402800000000000000000000E00000200000000000000000000000000000000000000000000000000000000000000000000000000000000000000000000000000000000098
:402840000000000000000000000000000000000000000000000000000000000000000000000000000000000000000000000000000000000000000000000000000000000058
:402880000000000000000000000000000000000000000000000000000000000000000000000000000000000000000000000000000000000000000000000000000000000018
:4028C00000000000000000000000000000000000000000000000000000000000000000000000000000000000000000000000000000000000000000000000000000000000D8
:402900000000000000000000000000000000000000000000000000000000000000000000000000000000000000000000000000000000000000000000000000000000000097
:0200000490303A
:020000003319B2
:0200000490402A
:200000000000000000000000000000000000000000000000000000000000000000000000E0
:0200000490501A
:0C000000000204C81193110104D544ACA7
:0200000490600A
:0100000001FE
:00000001FF